:100000000C943A000C9457000C9457000C94570031
:100010000C9457000C9457000C9457000C94570004
:100020000C9457000C9457000C9457000C945700F4
:100030000C9457000C9457000C9457000C945700E4
:100040000C9457000C9457000C9457000C945700D4
:100050000C9457000C9457000C9457000C945700C4
:100060000C9457000C9457000C9457000C945700B4
:100070000C94570011241FBECFEFD4E0DEBFCDBFDC
:1000800011E0A0E0B1E0ECE2F5E002C005900D92D5
:10009000AA33B107D9F721E0AAE3B1E001C01D926C
:1000A000A034B207E1F70E9452010C9494020C9420
:1000B0000000E82FF0E0E150FF4F908191509083D5
:1000C000815008950F931F93CF93DF93CDB7DEB781
:1000D00069970FB6F894DEBF0FBECDBF89E1E9E0A6
:1000E000F1E0DE01119601900D928A95E1F70E94F0
:1000F0002A0265E070E00E94B4010AE311E020E00A
:1001000030E0DC01BB27CD0165E070E00E94A30177
:1001100041E050E04C0F5D1F840F951FFC01E20F82
:10012000F31F8081F80181938F012F5F3F4F2530AE
:10013000310549F769960FB6F894DEBF0FBECDBF03
:10014000DF91CF911F910F910895E1E6F0E080E8F3
:1001500080831082A89584B7877F84BFE0E6F0E0B3
:100160008081886180831082089589B1082E000CF7
:10017000990B892F881F8827881F90E0089557982A
:100180005F980895429A0895429808953A9A42983D
:1001900008959C01FC01FF2795A1892F832B85A33E
:1001A00008959C01FC01FF2784A1832B84A395A1C2
:1001B000892F832B85A381E00895CF93DF93CCE231
:1001C000D1E0899199910E94D10081E0CA33D8078A
:1001D000C1F783E090E40E94D10080E090E80E94A3
:1001E000D10083E090E10E94D10083E090E80E947A
:1001F000D10083E090E2DF91CF910C94D100CF92B7
:10020000DF92EF92FF920F931F93CF93DF93C82E4D
:10021000F62E0CE211E0E801899199910E94C90043
:1002200021E0CA33D207C1F7EF2DF0E0EE0FFF1F38
:10023000EE5DFE4FE080F180F701FF2785A19F2D45
:100240009095892385A3C0E0D0E0D12CC0933F01D5
:10025000C6010C2E02C0959587950A94E2F7F80125
:1002600080FF09C080819181FC01FF2785A19095C5
:10027000892385A304C0808191810E94C9002196B1
:100280000E5F1F4FC830D10509F7C701DF91CF912D
:100290001F910F91FF90EF90DF90CF900C94C900C9
:1002A000862B0895FF920F931F93CF93DF930E94A5
:1002B000A5000E94C6000E94BF000E94DD0085E0EC
:1002C000F82EC0E000E010E0D0E08C2F90E0FC01C0
:1002D000E050FF4FDC01A65CBE4F60818C910E9414
:1002E00050016C2F0E94FF001D1718F40E94C200DD
:1002F00002C00E94C4000E94B500892B69F0011160
:100300000BC00E9462008F2D0E945900F82EDF5F03
:1003100001E0D63008F0D0E00E94B500892B09F446
:1003200000E01F5F153008F010E0CF5FC53008F027
:10033000C0E0F110CACF80E090E0DF91CF911F9133
:100340000F91FF9008950024552704C0080E591FEF
:10035000880F991F009729F076956795B8F3710576
:10036000B9F7802D952F089597FB072E16F400946A
:1003700007D077FD09D00E94C80107FC05D03EF4E4
:10038000909581959F4F0895709561957F4F089541
:10039000AA1BBB1B51E107C0AA1FBB1FA617B707AB
:1003A00010F0A61BB70B881F991F5A95A9F78095C7
:1003B0009095BC01CD0108958F929F92AF92BF920C
:1003C000CF92DF92EF92FF92CF93DF93EC0168819F
:1003D00079818A819B81611571058105910521F4DF
:1003E00064E279ED8BE597E02DE133EF41E050E0F9
:1003F0000E94530249015A0127EA31E440E050E0EB
:100400000E943A026B017C012CEE34EF4FEF5FEF5C
:10041000C501B4010E943A02DC01CB018C0D9D1D87
:10042000AE1DBF1DB7FF03C00197A109B048888367
:100430009983AA83BB839F77DF91CF91FF90EF9041
:10044000DF90CF90BF90AF909F908F9008950E94C3
:10045000DC01089585E091E00E94DC010895A0E0B0
:10046000B0E08093050190930601A0930701B0933B
:1004700008010895EE27FF27AA27BB2708C0A20F6F
:10048000B31FE41FF51F220F331F441F551F9695FE
:1004900087957795679598F37040A9F7009799F736
:1004A000BD01CF010895052E97FB1EF400940E9414
:1004B0006A0257FD07D00E94720207FC03D04EF477
:1004C0000C946A0250954095309521953F4F4F4FBF
:1004D0005F4F089590958095709561957F4F8F4FF0
:1004E0009F4F0895A1E21A2EAA1BBB1BFD010DC050
:1004F000AA1FBB1FEE1FFF1FA217B307E407F507D4
:1005000020F0A21BB30BE40BF50B661F771F881FAF
:10051000991F1A9469F760957095809590959B0145
:0C052000AC01BD01CF010895F894FFCF9D
:10052C0001010101010100000010087C08101020DD
:10053C007C20101038541010101054381010107CEF
:10054C0010100340008003100380032000400020A3
:0A055C000010000800040002000176
:00000001FF
