:100000000C943A000C9457000C9457000C94570031
:100010000C9457000C9457000C9457000C94570004
:100020000C9457000C9457000C9457000C945700F4
:100030000C9457000C9457000C9457000C945700E4
:100040000C9457000C9457000C9457000C945700D4
:100050000C9457000C9457000C9457000C945700C4
:100060000C9457000C9457000C9457000C945700B4
:100070000C94570011241FBECFEFD4E0DEBFCDBFDC
:1000800011E0A0E0B1E0EAEEF8E002C005900D92C8
:10009000A434B107D9F721E0A4E4B1E001C01D9276
:1000A000A835B207E1F70E940E030C9473040C9478
:1000B0000000282F65E00E948703913069F4822FA9
:1000C00090E0019765E070E00E94A703FB01E0501B
:1000D000FF4F8081815080838FEF820F0895EF92D0
:1000E000FF921F93CF93DF93CDB7DEB769970FB61B
:1000F000F894DEBF0FBECDBF182F89E1E9E0F1E033
:10010000DE01119601900D928A95E1F70E944A0452
:1001100065E070E00E94A703282F85E0E82EF12C0F
:10012000211307C00E944A04B7010E94A703282F89
:10013000F7CF822F90E065E070E00E947603E1E067
:10014000F0E0EC0FFD1FE80FF91FA4E4B1E081918E
:100150008D9381E0A934B807D1F7822F69960FB645
:10016000F894DEBF0FBECDBFDF91CF911F91FF90FE
:10017000EF900895E1E6F0E080E880831082A89592
:1001800084B7877F84BFE0E6F0E080818861808368
:100190001082089589B1082E000C990B892F881FB1
:1001A0008827881F90E0089557985F980895429A8D
:1001B0000895429808953A9A42980895EF92FF92CE
:1001C0000F931F93CF9388E893E10E94E402C0E06D
:1001D00000E010E084EFE82EFF24F394C801B7019B
:1001E0000E9493036C2F8A3F9105A8F48FEF0E9421
:1001F0007C01CF5FC53008F0C0E00E94F9020F5FBC
:100200001F4F08398AE3180749F7CF911F910F91C3
:10021000FF90EF90089580E0EACF0E94DE0081E039
:100220000895089508950F931F93CF9388E893E15D
:100230000E94E402C0E000E010E0083E83E01807FE
:1002400018F46C2F8FEF06C0083E83E0180721F0EA
:100250006C2F80E00E947C01CF5FC53008F0C0E0C9
:100260000E94F9020F5F1F4F08398AE3180729F728
:10027000CF911F910F910895882319F0833019F0C1
:1002800008950C94DE000C94130108959C01FC0168
:10029000FF2795A1892F832B85A308959C01FC013D
:1002A000FF2784A1832B84A395A1892F832B85A36A
:1002B00081E00895CF93DF93CCE2D1E089919991C9
:1002C0000E944E0181E0CA33D807C1F783E090E471
:1002D0000E944E0180E090E80E944E0183E090E190
:1002E0000E944E0183E090E80E944E0183E090E27C
:1002F000DF91CF910C944E01CF92DF92EF92FF925B
:100300000F931F93CF93DF93C82EF62E0CE211E0CC
:10031000E801899199910E94460121E0CA33D207F0
:10032000C1F7EF2DF0E0EE0FFF1FEE5DFE4FE08016
:10033000F180F701FF2785A19F2D9095892385A343
:10034000C0E0D0E0D12CC0934901C6010C2E02C000
:10035000959587950A94E2F7F80180FF09C080819E
:100360009181FC01FF2785A19095892385A304C075
:10037000808191810E94460121960E5F1F4FC730F8
:10038000D10509F7C701DF91CF911F910F91FF9020
:10039000EF90DF90CF900C944601862B08950C943B
:1003A000C0020E94540280E00E942202811112C009
:1003B00081E00E94220281110DC082E00E9422028F
:1003C000811108C083E00E942202811103C084E0F1
:1003D0000C94220281E008950C944202623071056F
:1003E00019F170F46130710559F5FC01FF2724A162
:1003F000392F3095922F932394A385A183231DC079
:100400006330710541F064307105D1F4FC01FF27C0
:1004100084A1892B0FC0FC01FF2784A1892B84A311
:1004200085A19095892309C0FC01FF2784A1292F6C
:100430002095822384A385A1892B85A381E008953B
:1004400080E00895E82FF0E0EE0FFF1FE65BFE4F1F
:100450008081882321F0918181E0892702C080E09A
:1004600090E081700895E82FF0E0EE0FFF1FE65B4B
:10047000FE4F8081811102C0818102C080E090E046
:1004800081700895E82FF0E0EE0FFF1FE65BFE4F4E
:1004900080810895E82FF0E0EE0FFF1FE65BFE4F2E
:1004A000908181E0892708957F928F929F92AF92E9
:1004B000BF92CF92DF92EF92FF920F931F93CF9351
:1004C000DF93CAE4D1E05AE3C52E51E0D52E66E0B1
:1004D000762E88818983F601019111916F0158016F
:1004E000BB24F50124A1E12EFF2485A190E08E21FB
:1004F0009F2130E02E213F21232B31F0892B51F415
:1005000033E0832E912C0DC0892B41F488248394F1
:10051000912C07C094E0892E912C03C082E0882E94
:10052000912C64E070E0C8010E94EE0162E070E08E
:10053000C8010E94EE01872D8A95F1F7F50183A18C
:1005400090E0E822F92281E0EF2809F080E088833A
:10055000B401C8010E94EE012296F1E0C435DF0724
:1005600009F0B7CFDF91CF911F910F91FF90EF90DE
:10057000DF90CF90BF90AF909F908F907F90089525
:1005800008951092800084E080938100109285008D
:1005900010928400089580918400909185000895C0
:1005A000AC0180918400909185009C01241B350B47
:1005B000283E3340B0F708952091840030918500A3
:1005C000820F931F0C94D002CF93DF93EC010E9413
:1005D000C1029E0140E050E062E17AE780E090E0F5
:1005E0000E94BB033093570120935601DF91CF91B6
:1005F000089580915401909155010E94D00220915C
:100600005401309155018091560190915701820F0C
:10061000931F90935501809354010895EF92FF9298
:100620000F931F93CF93DF930E94BA000E94DB00C9
:100630000E94D4000E945A010E94CF018FEF0E94B5
:100640006F00E82E0BE1D0E0F12C10E0C0E08D2F20
:1006500090E0FC01E050FF4FDC01AC5BBE4F6081DD
:100660008C910E94CD016D2F0E947C011C1718F403
:100670000E94D70002C00E94D9000E94D1018823A5
:1006800089F08E2D0E94EC01882359F0CF5F0E94E3
:100690000D01C03108F0C0E08E2D0E946F00E82EE1
:1006A00001C0C0E00E94CA00892B41F0F11006C0D1
:1006B000802F0E945900082FFF24F3940E94CA0043
:1006C000892B09F4F12C1F5F1F3008F010E0DF5F69
:1006D000D53008F0D0E00111BACF80E090E0DF9192
:1006E000CF911F910F91FF90EF900895002455270F
:1006F00004C0080E591F880F991F009729F076959E
:100700006795B8F37105B9F7802D952F0895991B5A
:1007100079E004C0991F961708F0961B881F7A95F8
:10072000C9F780950895AA1BBB1B51E107C0AA1FFA
:10073000BB1FA617B70710F0A61BB70B881F991F82
:100740005A95A9F780959095BC01CD01089597FB26
:10075000072E16F4009407D077FD09D00E9493036A
:1007600007FC05D03EF4909581959F4F08957095B4
:1007700061957F4F0895052E97FB1EF400940E940B
:10078000D20357FD07D00E94DA0307FC03D04EF4D2
:100790000C94D20350954095309521953F4F4F4F83
:1007A0005F4F089590958095709561957F4F8F4F1D
:1007B0009F4F0895A1E21A2EAA1BBB1BFD010DC07D
:1007C000AA1FBB1FEE1FFF1FA217B307E407F50701
:1007D00020F0A21BB30BE40BF50B661F771F881FDD
:1007E000991F1A9469F760957095809590959B0173
:1007F000AC01BD01CF0108958F929F92AF92BF923D
:10080000CF92DF92EF92FF92CF93DF93EC0168815A
:1008100079818A819B81611571058105910521F49A
:1008200064E279ED8BE597E02DE133EF41E050E0B4
:100830000E94BB0349015A0127EA31E440E050E03D
:100840000E945A046B017C012CEE34EF4FEF5FEFF6
:10085000C501B4010E945A04DC01CB018C0D9D1D21
:10086000AE1DBF1DB7FF03C00197A109B048888323
:100870009983AA83BB839F77DF91CF91FF90EF90FD
:10088000DF90CF90BF90AF909F908F9008950E947F
:10089000FC03089585E091E00E94FC030895A0E028
:1008A000B0E08093050190930601A0930701B093F7
:1008B00008010895EE27FF27AA27BB2708C0A20F2B
:1008C000B31FE41FF51F220F331F441F551F9695BA
:1008D00087957795679598F37040A9F7009799F7F2
:0A08E000BD01CF010895F894FFCF89
:1008EA0001010101010100000010087C081010102C
:1008FA0054381010207C2010103854101010107C1E
:10090A0010100340008003100380032000400020E1
:10091A0000100008000400020001038003400320C5
:04092A000080031036
:00000001FF
