:100000000C943A000C9457000C9457000C94570031
:100010000C9457000C9457000C9457000C94570004
:100020000C9457000C9457000C9457000C945700F4
:100030000C9457000C9457000C9457000C945700E4
:100040000C9457000C9457000C9457000C945700D4
:100050000C9457000C9457000C9457000C945700C4
:100060000C9457000C9457000C9457000C945700B4
:100070000C94570011241FBECFEFD4E0DEBFCDBFDC
:1000800011E0A0E0B1E0E8E8FBE002C005900D92CD
:10009000A038B107D9F721E0A0E8B1E001C01D9276
:1000A000A439B207E1F70E945D040C94C2050C94D8
:1000B0000000282F65E00E94D604913069F4822F59
:1000C00090E0019765E070E00E94F604FB01E050CB
:1000D000FF4F8081815080838FEF820F0895EF92D0
:1000E000FF921F93CF93DF93CDB7DEB769970FB61B
:1000F000F894DEBF0FBECDBF182F89E1E9E0F1E033
:10010000DE01119601900D928A95E1F70E94990502
:1001100065E070E00E94F604282F85E0E82EF12CBF
:10012000211307C00E949905B7010E94F604282FE9
:10013000F7CF822F90E065E070E00E94C504E1E017
:10014000F0E0EC0FFD1FE80FF91FA0E8B1E081918E
:100150008D9381E0A538B807D1F7822F69960FB645
:10016000F894DEBF0FBECDBFDF91CF911F91FF90FE
:10017000EF900895E1E6F0E080E880831082A89592
:1001800084B7877F84BFE0E6F0E080818861808368
:100190001082089589B1082E000C990B892F881FB1
:1001A0008827881F90E0089557985F980895429A8D
:1001B0000895429808953A9A42980895EF92FF92CE
:1001C0000F931F93CF938EEE92E00E943304C0E012
:1001D00000E010E082E3E82EF12CC801B7010E9494
:1001E000E2046C2F4997A8F48FEF0E94CB02CF5FF7
:1001F000C53008F0C0E00E9448040F5F1F4F0C3D5F
:1002000085E0180751F7CF911F910F91FF90EF9064
:10021000089580E0EACFEF92FF921F93CF93DF9390
:10022000CDB7DEB7A3970FB6F894DEBF0FBECDBF34
:100230008EEE92E00E94330483E2E2E2F1E0DE011E
:10024000119601900D928A95E1F710E0E12CF12CC6
:1002500084E6E816F104B0F084E6E816F10409F447
:1002600068C086E9E816F10420F4612FE1E0F0E0CF
:1002700059C087E9E816F10408F45BC088ECE81679
:10028000F10418F4612F8FEF52C089ECE816F104E5
:1002900008F44FC08AEFE816F10420F4612FE6E07D
:1002A000F0E040C08BEFE816F10408F442C08CE2A5
:1002B000E81681E0F80620F4612FEBE0F0E032C0B0
:1002C0008DE2E81681E0F806A0F18EE5E81681E0FF
:1002D000F80620F4612FE0E1F0E024C08FE5E81695
:1002E00081E0F80630F180E9E81681E0F80620F4B4
:1002F000612FE5E1F0E016C081E9E81681E0F8063B
:10030000C0F082ECE81681E0F80620F4612FEAE103
:10031000F0E008C083ECE81681E0F80650F0612FA9
:10032000EFE1F0E0EC0FFD1FE10FF11D80810E9475
:10033000CB021F5F153008F010E00E9448048FEFD9
:10034000E81AF80A8CEDE81685E0F80609F080CF87
:10035000A3960FB6F894DEBF0FBECDBFDF91CF914D
:100360001F91FF90EF900895CF92DF92EF92FF924E
:100370000F931F93CF93DF93CDB7DEB764970FB67C
:10038000F894DEBF0FBECDBF8EEE92E00E94330424
:1003900084E1E5E4F1E0DE01119601900D928A9589
:1003A000E1F78CEDC82E85E0D82E10E000E0E12CBE
:1003B000F12C802F90E065E070E00E94C50421E000
:1003C00030E02C0F3D1F820F931FFC01E10FF11D48
:1003D000612F80810E94CB021F5F153008F010E072
:1003E0000E9448043FEFE31AF30A81E0C81AD108DB
:1003F00039F022E3E216F104E1F60F5F0370D7CF84
:1004000064960FB6F894DEBF0FBECDBFDF91CF91DB
:100410001F910F91FF90EF90DF90CF9008950E9471
:10042000B40181E00895CF92DF92FF920F931F9362
:10043000CF93DF9300D000D01F92CDB7DEB78EEE02
:1004400092E00E94330485E0E9E5F1E0DE011196D7
:1004500001900D928A95E1F7F12C00E010E08FE712
:10046000C82ED12C073781E0180718F46F2D8FEFB5
:100470002BC000FD09C06F2DE1E0F0E0EC0FFD1F87
:10048000EF0DF11D808120C00E949905B6010E94E8
:10049000F604073791E0190721F00E3E92E01907A4
:1004A00090F09801277033272130310531F49801FD
:1004B0002F5E32402637314030F098012F713327BC
:1004C0002130310519F46F2D0E94CB02F39484E0A2
:1004D0008F1508F4F12C0E9448040F5F1F4F0C3D4C
:1004E00095E0190709F0BECF0F900F900F900F9075
:1004F0000F90DF91CF911F910F91FF90DF90CF90E0
:100500000895813059F01CF4882331F00895823029
:1005100039F0833039F008950C94DE000C940B010F
:100520000C94B4010C94130208959C01FC01FF2764
:1005300095A1892F832B85A308959C01FC01FF279A
:1005400084A1832B84A395A1892F832B85A381E08C
:100550000895CF93DF93C8E6D1E0899199910E94E5
:100560009D0281E0C637D807C1F783E090E40E947E
:100570009D0280E090E80E949D0283E090E10E944D
:100580009D0283E090E80E949D0283E090E2DF916B
:10059000CF910C949D02CF92DF92EF92FF920F9336
:1005A0001F93CF93DF93C82EF62E08E611E0E801E3
:1005B000899199910E94950221E0C637D207C1F72F
:1005C000EF2DF0E0EE0FFF1FE25AFE4FE080F180CA
:1005D000F701FF2785A19F2D9095892385A3C0E072
:1005E000D0E0D12CC0938501C6010C2E02C0959598
:1005F00087950A94E2F7F80180FF09C08081918114
:10060000FC01FF2785A19095892385A304C08081E3
:1006100091810E94950221960E5F1F4FC730D10530
:1006200009F7C701DF91CF911F910F91FF90EF90D4
:10063000DF90CF900C949502862B08950C940F04B4
:100640000E94A30380E00E947103811112C081E027
:100650000E94710381110DC082E00E94710381111B
:1006600008C083E00E947103811103C084E00C94F0
:10067000710381E008950C9491036230710519F1C2
:1006800070F46130710559F5FC01FF2724A1392F61
:100690003095922F932394A385A183231DC06330AB
:1006A000710541F064307105D1F4FC01FF2784A18C
:1006B000892B0FC0FC01FF2784A1892B84A385A16E
:1006C0009095892309C0FC01FF2784A1292F20953B
:1006D000822384A385A1892B85A381E0089580E0EE
:1006E0000895E82FF0E0EE0FFF1FEA57FE4F8081DC
:1006F000882321F0918181E0892702C080E090E089
:1007000081700895E82FF0E0EE0FFF1FEA57FE4FCB
:100710008081811102C0818102C080E090E08170FF
:100720000895E82FF0E0EE0FFF1FEA57FE4F80819B
:100730000895E82FF0E0EE0FFF1FEA57FE4F90817B
:1007400081E0892708957F928F929F92AF92BF9206
:10075000CF92DF92EF92FF920F931F93CF93DF938D
:10076000C6E8D1E056E7C52E51E0D52E66E0762EDC
:1007700088818983F601019111916F015801BB2491
:10078000F50124A1E12EFF2485A190E08E219F2177
:1007900030E02E213F21232B31F0892B51F433E01F
:1007A000832E912C0DC0892B41F488248394912CA5
:1007B00007C094E0892E912C03C082E0882E912CF2
:1007C00064E070E0C8010E943D0362E070E0C8018F
:1007D0000E943D03872D8A95F1F7F50183A190E0F2
:1007E000E822F92281E0EF2809F080E08883B40153
:1007F000C8010E943D032296F1E0C039DF0709F0ED
:10080000B7CFDF91CF911F910F91FF90EF90DF90C5
:10081000CF90BF90AF909F908F907F900895089554
:100820001092800084E080938100109285001092E5
:100830008400089580918400909185000895AC0112
:1008400080918400909185009C01241B350B283EEB
:100850003340B0F708952091840030918500820FD5
:10086000931F0C941F04CF93DF93EC010E9410049C
:100870009E0140E050E062E17AE780E090E00E9473
:100880000A053093930120939201DF91CF9108954F
:1008900080919001909191010E941F0420919001FC
:1008A000309191018091920190919301820F931F59
:1008B00090939101809390010895EF92FF920F938E
:1008C0001F93CF93DF930E94BA000E94DB000E9427
:1008D000D4000E94A9020E941E038FEF0E946F00A5
:1008E000E82E0BE1D0E0F12C10E0C0E08D2F90E07D
:1008F000FC01E050FF4FDC01A058BE4F60818C919D
:100900000E941C036D2F0E94CB021C1718F40E943A
:10091000D70002C00E94D9000E942003882389F0DA
:100920008E2D0E943B03882359F0CF5F0E940F0257
:10093000C03108F0C0E08E2D0E946F00E82E01C08B
:10094000C0E00E94CA00892B41F0F11006C0802F40
:100950000E945900082FFF24F3940E94CA00892B9B
:1009600009F4F12C1F5F1F3008F010E0DF5FD53075
:1009700008F0D0E00111BACF80E090E0DF91CF9194
:100980001F910F91FF90EF9008950024552704C008
:10099000080E591F880F991F009729F076956795C3
:1009A000B8F37105B9F7802D952F0895991B79E05B
:1009B00004C0991F961708F0961B881F7A95C9F7EF
:1009C00080950895AA1BBB1B51E107C0AA1FBB1F3E
:1009D000A617B70710F0A61BB70B881F991F5A95CB
:1009E000A9F780959095BC01CD01089597FB072E3E
:1009F00016F4009407D077FD09D00E94E20407FCAA
:100A000005D03EF4909581959F4F0895709561951E
:100A10007F4F0895052E97FB1EF400940E94210538
:100A200057FD07D00E94290507FC03D04EF40C9413
:100A3000210550954095309521953F4F4F4F5F4F81
:100A4000089590958095709561957F4F8F4F9F4F3A
:100A50000895A1E21A2EAA1BBB1BFD010DC0AA1FFF
:100A6000BB1FEE1FFF1FA217B307E407F50720F017
:100A7000A21BB30BE40BF50B661F771F881F991F92
:100A80001A9469F760957095809590959B01AC01DB
:100A9000BD01CF0108958F929F92AF92BF92CF92E6
:100AA000DF92EF92FF92CF93DF93EC01688179811F
:100AB0008A819B81611571058105910521F464E2AC
:100AC00079ED8BE597E02DE133EF41E050E00E94B6
:100AD0000A0549015A0127EA31E440E050E00E944A
:100AE000A9056B017C012CEE34EF4FEF5FEFC501E0
:100AF000B4010E94A905DC01CB018C0D9D1DAE1D2A
:100B0000BF1DB7FF03C00197A109B048888399832F
:100B1000AA83BB839F77DF91CF91FF90EF90DF9007
:100B2000CF90BF90AF909F908F9008950E944B05FB
:100B3000089585E091E00E944B050895A0E0B0E0A3
:100B40008093050190930601A0930701B0930801DB
:100B50000895EE27FF27AA27BB2708C0A20FB31FBF
:100B6000E41FF51F220F331F441F551F96958795CD
:100B70007795679598F37040A9F7009799F7BD01AD
:080B8000CF010895F894FFCFA6
:100B880001010101010100000010087C081010108B
:100B980054381010207C2010103854101010107C7D
:100BA80010106030180C064F6773797CFFFFFFFF49
:100BB8007CFFFFFF787CFFFF70787CFF6070787C9B
:100BC800406070787C7E425A525E023A2A223A3D50
:100BD800252D213F3E222A2E2030220A2230034092
:100BE800008003100380032000400020001000084C
:100BF800000400020001038003400320008003106A
:00000001FF
