:100000000C943A000C9457000C9457000C94570031
:100010000C9457000C9457000C9457000C94570004
:100020000C9457000C9457000C9457000C945700F4
:100030000C9457000C9457000C9457000C945700E4
:100040000C9457000C9457000C9457000C945700D4
:100050000C9457000C9457000C9457000C945700C4
:100060000C9457000C9457000C9457000C945700B4
:100070000C94570011241FBECFEFD4E0DEBFCDBFDC
:1000800011E0A0E0B1E0EEE2FEE002C005900D92CA
:10009000AA38B107D9F721E0AAE8B1E001C01D9262
:1000A000AE39B207E1F70E94AC050C9415070C9429
:1000B0000000282F65E00E941B06913069F4822F12
:1000C00090E0019765E070E00E944906FB01E05076
:1000D000FF4F8081815080838FEF820F0895EF92D0
:1000E000FF921F93CF93DF93CDB7DEB769970FB61B
:1000F000F894DEBF0FBECDBF182F89E1EAE0F1E032
:10010000DE01119601900D928A95E1F70E94EC06AE
:1001100065E070E00E944906282F85E0E82EF12C6A
:10012000211307C00E94EC06B7010E944906282F40
:10013000F7CF822F90E065E070E00E940A06E1E0D0
:10014000F0E0EC0FFD1FE80FF91FAAE8B1E0819184
:100150008D9381E0AF38B807D1F7822F69960FB63B
:10016000F894DEBF0FBECDBFDF91CF911F91FF90FE
:10017000EF900895E1E6F0E080E880831082A89592
:1001800084B7877F84BFE0E6F0E080818861808368
:100190001082089589B1082E000C990B892F881FB1
:1001A0008827881F90E0089557985F980895429A8D
:1001B0000895429808953A9A42980895EF92FF92CE
:1001C0000F931F93CF938EEE92E00E944604C0E0FF
:1001D00000E010E082E3E82EF12CC801B7010E9494
:1001E00035066C2F4997A8F48FEF0E94DE02CF5F8F
:1001F000C53008F0C0E00E945B040F5F1F4F0C3D4C
:1002000085E0180751F7CF911F910F91FF90EF9064
:10021000089580E0EACFEF92FF921F93CF93DF9390
:10022000CDB7DEB7A3970FB6F894DEBF0FBECDBF34
:100230008EEE92E00E94460483E2E3E2F1E0DE010A
:10024000119601900D928A95E1F710E0E12CF12CC6
:1002500084E6E816F104B0F084E6E816F10409F447
:1002600068C086E9E816F10420F4612FE1E0F0E0CF
:1002700059C087E9E816F10408F45BC088ECE81679
:10028000F10418F4612F8FEF52C089ECE816F104E5
:1002900008F44FC08AEFE816F10420F4612FE6E07D
:1002A000F0E040C08BEFE816F10408F442C08CE2A5
:1002B000E81681E0F80620F4612FEBE0F0E032C0B0
:1002C0008DE2E81681E0F806A0F18EE5E81681E0FF
:1002D000F80620F4612FE0E1F0E024C08FE5E81695
:1002E00081E0F80630F180E9E81681E0F80620F4B4
:1002F000612FE5E1F0E016C081E9E81681E0F8063B
:10030000C0F082ECE81681E0F80620F4612FEAE103
:10031000F0E008C083ECE81681E0F80650F0612FA9
:10032000EFE1F0E0EC0FFD1FE10FF11D80810E9475
:10033000DE021F5F153008F010E00E945B048FEFB3
:10034000E81AF80A8CEDE81685E0F80609F080CF87
:10035000A3960FB6F894DEBF0FBECDBFDF91CF914D
:100360001F91FF90EF900895CF92DF92EF92FF924E
:100370000F931F93CF93DF93CDB7DEB764970FB67C
:10038000F894DEBF0FBECDBF8EEE92E00E94460411
:1003900084E1E6E4F1E0DE01119601900D928A9588
:1003A000E1F78CEDC82E85E0D82E10E000E0E12CBE
:1003B000F12C802F90E065E070E00E940A0621E0B9
:1003C00030E02C0F3D1F820F931FFC01E10FF11D48
:1003D000612F80810E94DE021F5F153008F010E05F
:1003E0000E945B043FEFE31AF30A81E0C81AD108C8
:1003F00039F022E3E216F104E1F60F5F0370D7CF84
:1004000064960FB6F894DEBF0FBECDBFDF91CF91DB
:100410001F910F91FF90EF90DF90CF900895CF92B2
:10042000DF92FF920F931F93CF93DF9300D000D002
:100430001F92CDB7DEB78EEE92E00E94460485E0B3
:10044000EAE5F1E0DE01119601900D928A95E1F75F
:10045000F12C00E010E08FE7C82ED12C073781E0A7
:10046000180718F46F2D8FEF2BC000FD09C06F2DFA
:10047000E1E0F0E0EC0FFD1FEF0DF11D808120C0E9
:100480000E94EC06B6010E944906073791E0190761
:1004900021F00E3E92E0190790F098012770332763
:1004A0002130310531F498012F5E3240263731403A
:1004B00030F098012F7133272130310519F46F2D59
:1004C0000E94DE02F39484E08F1508F4F12C0E9460
:1004D0005B040F5F1F4F0C3D95E0190709F0BECF7D
:1004E0000F900F900F900F900F90DF91CF911F9171
:1004F0000F91FF90DF90CF900895813059F01CF458
:10050000882331F00895823039F0833039F008952E
:100510000C94DE000C940B010C94B4010C940F02AB
:100520000E946305882379F00E9465056AE00E94B5
:100530002706892F837887FF03C081508C6F8F5FD8
:100540000E947D0202C00E940B0181E0089508957F
:100550009C01FC01FF2795A1892F832B85A308957A
:100560009C01FC01FF2784A1832B84A395A1892FE3
:10057000832B85A381E00895CF93DF93C9E6D1E073
:10058000899199910E94B00281E0C737D807C1F7DD
:1005900083E090E40E94B00280E090E80E94B00204
:1005A00083E090E10E94B00283E090E80E94B002F4
:1005B00083E090E2DF91CF910C94B002CF92DF9272
:1005C000EF92FF920F931F93CF93DF93C82EF62ED7
:1005D00009E611E0E801899199910E94A80221E0C1
:1005E000C737D207C1F7EF2DF0E0EE0FFF1FE15A3A
:1005F000FE4FE080F180F701FF2785A19F2D9095A8
:10060000892385A3C0E0D0E0D12CC0938F01C6011F
:100610000C2E02C0959587950A94E2F7F80180FFA9
:1006200009C080819181FC01FF2785A190958923D4
:1006300085A304C0808191810E94A80221960E5F4B
:100640001F4FC730D10509F7C701DF91CF911F9127
:100650000F91FF90EF90DF90CF900C94A802862B23
:1006600008950C9422040E94B60380E00E94840343
:10067000811112C081E00E94840381110DC082E0CB
:100680000E948403811108C083E00E9484038111C9
:1006900003C084E00C94840381E008950C94A403C7
:1006A0006230710519F170F46130710559F5FC0182
:1006B000FF2724A1392F3095922F932394A385A14E
:1006C00083231DC06330710541F064307105D1F49E
:1006D000FC01FF2784A1892B0FC0FC01FF2784A107
:1006E000892B84A385A19095892309C0FC01FF274C
:1006F00084A1292F2095822384A385A1892B85A3FA
:1007000081E0089580E00895E82FF0E0EE0FFF1FEC
:10071000E057FE4F8081882321F0918181E0892775
:1007200002C080E090E081700895E82FF0E0EE0FC5
:10073000FF1FE057FE4F8081811102C0818102C0FE
:1007400080E090E081700895E82FF0E0EE0FFF1F49
:10075000E057FE4F80810895E82FF0E0EE0FFF1F75
:10076000E057FE4F908181E0892708957F928F9214
:100770009F92AF92BF92CF92DF92EF92FF920F9330
:100780001F93CF93DF93C0E9D1E057E7C52E51E027
:10079000D52E66E0762E88818983F601019111912C
:1007A0006F015801BB24F50124A1E12EFF2485A18E
:1007B00090E08E219F2130E02E213F21232B31F02C
:1007C000892B51F433E0832E912C0DC0892B41F4F9
:1007D00088248394912C07C094E0892E912C03C027
:1007E00082E0882E912C64E070E0C8010E945003E2
:1007F00062E070E0C8010E945003872D8A95F1F7EE
:10080000F50183A190E0E822F92281E0EF2809F0C8
:1008100080E08883B401C8010E9450032296F1E071
:10082000CA39DF0709F0B7CFDF91CF911F910F9140
:10083000FF90EF90DF90CF90BF90AF909F908F9000
:100840007F90089508951092800084E08093810045
:1008500010928500109284000895809184009091F8
:1008600085000895AC0180918400909185009C01E1
:10087000241B350B283E3340B0F7089520918400A7
:1008800030918500820F931F0C943204CF93DF9335
:10089000EC010E9423049E0140E050E062E17AE70F
:1008A00080E090E00E945D0630939D0120939C01C2
:1008B000DF91CF91089580919A0190919B010E94C0
:1008C000320420919A0130919B0180919C0190917A
:1008D0009D01820F931F90939B0180939A0108952D
:1008E0009C01215031093093CD0081508093CC0080
:1008F0000895CF93DF93EC01888199810E94700461
:100900008A819BEF980F943008F088E098E19093EB
:10091000C9008550880F8093CA0081E0DF91CF9194
:1009200008958091C800881F8827881F08958091A6
:10093000C80085FB882780F908958091C80086FB50
:10094000882780F90895CF93C82F0E9497048823A1
:10095000E1F38091C80080648093C800C093CE000A
:10096000CF9108958091C80087FFFCCF8091CE0081
:100970000895CF93DF93EC018991882319F00E94A9
:10098000A304FACFDF91CF910895CF93DF93DC01D9
:10099000FB0160E070E080E0C1E0D0E08417C9F0C6
:1009A0009191BE01092E02C0660F771F0A94E2F7EB
:1009B0006F5F7F4F769567956A0F7B1F02C07695B4
:1009C00067959A95E2F76F3F710519F010F08F5F08
:1009D000E5CFF9016083DF91CF910895CF93DF9345
:1009E0001F92CDB7DEB79E012F5F3F4F45E061E814
:1009F00071E00E94C50491E0980F909305019981E0
:100A0000915097BD18BC95B5977039F095B5209168
:100A100005012770987F922B95BD298130E0E82F42
:100A2000F0E0EF57FE4FC901008002C0880F991F08
:100A30000A94E2F70F90DF91CF91089585B3897FF3
:100A400085BB85B5909105019770887F892B85BD01
:100A5000089585B5887F85BD089585B382FB882775
:100A600080F90895009719F0019741F0089584B531
:100A70008F736295660F660F607C05C084B56370E6
:100A80006295607F8F7C682B64BD0895009741F06C
:100A9000019759F484B58E7F84BD84B5826002C00D
:100AA00084B58C7F84BD81E0089580E0089514BCF6
:100AB00015BC16BC18BC84B58E7F84BD84B582601D
:100AC00084BD81E008950C9491040C94B2040C94BC
:100AD00097040C949D040C94A3040E94A3040E9408
:100AE0009D048823E1F38CE291E00197F1F70E94E5
:100AF000910481110C94650508950C94B904CF9369
:100B0000DF9300D01F92CDB7DEB780918601909120
:100B10008701A091880189839A83AB83509A589A60
:100B20000E9457058FE690E00E94EE0481E090E07D
:100B30000E94460561E070E081E090E00E9432058D
:100B40000E941E05CE0101960E9479040F900F901D
:100B50000F90DF91CF910895FF920F931F93CF9342
:100B6000DF930E94BA000E94DB000E94D4000E9422
:100B7000BC020E9431038FEF0E946F00F82E0BE140
:100B8000D0E010E0C0E08D2F90E0FC01E050FF4F7E
:100B9000DC01A657BE4F60818C910E942F036D2F00
:100BA0000E94DE021C1718F40E94D70002C00E94A7
:100BB000D9000E949002882321F0802F0E945900C2
:100BC000082F0E943303882379F08F2D0E944E0353
:100BD000882349F0CF5FC03108F0C0E08F2D0E941C
:100BE0006F00F82E01C0C0E00E94CA000E94CA0037
:100BF0001F5F1F3008F010E0DF5FD53008F0D0E055
:100C00000111C1CF80E090E0DF91CF911F910F9152
:100C1000FF9008950024552704C0080E591F880F1F
:100C2000991F009729F076956795B8F37105B9F784
:100C3000802D952F0895991B79E004C0991F961770
:100C400008F0961B881F7A95C9F78095089587FB51
:100C5000082E062687FD819567FD61950E941B067B
:100C60000EF4919507FC81950895AA1BBB1B51E1D9
:100C700007C0AA1FBB1FA617B70710F0A61BB70B0C
:100C8000881F991F5A95A9F780959095BC01CD01B1
:100C9000089597FB072E16F4009407D077FD09D02E
:100CA0000E94350607FC05D03EF4909581959F4F34
:100CB0000895709561957F4F0895052E97FB1EF45A
:100CC00000940E94740657FD07D00E947C0607FC22
:100CD00003D04EF40C9474065095409530952195B0
:100CE0003F4F4F4F5F4F0895909580957095619558
:100CF0007F4F8F4F9F4F0895A1E21A2EAA1BBB1B57
:100D0000FD010DC0AA1FBB1FEE1FFF1FA217B307D7
:100D1000E407F50720F0A21BB30BE40BF50B661FED
:100D2000771F881F991F1A9469F7609570958095B1
:100D300090959B01AC01BD01CF0108958F929F92C8
:100D4000AF92BF92CF92DF92EF92FF92CF93DF9359
:100D5000EC01688179818A819B816115710581052A
:100D6000910521F464E279ED8BE597E02DE133EF15
:100D700041E050E00E945D0649015A0127EA31E452
:100D800040E050E00E94FC066B017C012CEE34EF49
:100D90004FEF5FEFC501B4010E94FC06DC01CB01FF
:100DA0008C0D9D1DAE1DBF1DB7FF03C00197A1098E
:100DB000B04888839983AA83BB839F77DF91CF91C3
:100DC000FF90EF90DF90CF90BF90AF909F908F906B
:100DD00008950E949E06089586E091E00E949E0676
:100DE0000895A0E0B0E08093060190930701A093DE
:100DF0000801B09309010895EE27FF27AA27BB2712
:100E000008C0A20FB31FE41FF51F220F331F441F9A
:100E1000551F969587957795679598F37040A9F734
:0E0E2000009799F7BD01CF010895F894FFCF18
:100E2E000101010101010100000010087C081010F1
:100E3E001054381010207C20101038541010101040
:100E4E007C10106030180C064F6773797CFFFFFF23
:100E5E00FF7CFFFFFF787CFFFF70787CFF6070786F
:100E6E007C406070787C7E425A525E023A2A223A68
:100E7E003D252D213F3E222A2E2030220A223003EC
:100E8E00400080031003800320004000200010006B
:100E9E0008000400020001038003400320008003C9
:0A0EAE0010000306080AD000080037
:00000001FF
