:100000000C943A000C9457000C9457000C94570031
:100010000C9457000C9457000C9457000C94570004
:100020000C9457000C9457000C9457000C945700F4
:100030000C9457000C9457000C9457000C945700E4
:100040000C9457000C9457000C9457000C945700D4
:100050000C9457000C9457000C9457000C945700C4
:100060000C9457000C9457000C9457000C945700B4
:100070000C94570011241FBECFEFD4E0DEBFCDBFDC
:1000800011E0A0E0B1E0E4E7F9E002C005900D92D4
:10009000AA34B107D9F721E0AAE4B1E001C01D926A
:1000A000AE35B207E1F70E9453030C94B8040C94E8
:1000B0000000282F65E00E94CC03913069F4822F64
:1000C00090E0019765E070E00E94EC03FB01E050D6
:1000D000FF4F8081815080838FEF820F0895EF92D0
:1000E000FF921F93CF93DF93CDB7DEB769970FB61B
:1000F000F894DEBF0FBECDBF182F89E1E9E0F1E033
:10010000DE01119601900D928A95E1F70E948F040D
:1001100065E070E00E94EC03282F85E0E82EF12CCA
:10012000211307C00E948F04B7010E94EC03282FFF
:10013000F7CF822F90E065E070E00E94BB03E1E022
:10014000F0E0EC0FFD1FE80FF91FAAE4B1E0819188
:100150008D9381E0AF34B807D1F7822F69960FB63F
:10016000F894DEBF0FBECDBFDF91CF911F91FF90FE
:10017000EF900895E1E6F0E080E880831082A89592
:1001800084B7877F84BFE0E6F0E080818861808368
:100190001082089589B1082E000C990B892F881FB1
:1001A0008827881F90E0089557985F980895429A8D
:1001B0000895429808953A9A42980895EF92FF92CE
:1001C0000F931F93CF9388E893E10E942903C0E027
:1001D00000E010E084EFE82EFF24F394C801B7019B
:1001E0000E94D8036C2F8A3F9105A8F48FEF0E94DC
:1001F000C101CF5FC53008F0C0E00E943E030F5F31
:100200001F4F08398AE3180749F7CF911F910F91C3
:10021000FF90EF90089580E0EACF08950895CF927F
:10022000DF92FF920F931F93CF93DF9300D000D004
:100230001F92CDB7DEB788E893E10E94290385E0DD
:10024000E2E2F1E0DE01119601900D928A95E1F76C
:10025000F12C00E010E08FE7C82ED12C063A8EE09A
:10026000180718F46F2D8FEF2BC000FD09C06F2DFC
:10027000E1E0F0E0EC0FFD1FEF0DF11D808120C0EB
:100280000E948F04B6010E94EC03063A9EE0190713
:1002900021F00C349DE1190790F098012770332765
:1002A0002130310531F498012D543D41253A3E402D
:1002B00030F098012F7133272130310519F46F2D5B
:1002C0000E94C101F39484E08F1508F4F12C0E9480
:1002D0003E030F5F1F4F08399AE3190709F0BECF9D
:1002E0000F900F900F900F900F90DF91CF911F9173
:1002F0000F91FF90DF90CF900895882319F08330FD
:1003000019F008950C94DE000C940F010E940F0167
:1003100081E0089508959C01FC01FF2795A1892F94
:10032000832B85A308959C01FC01FF2784A1832BC7
:1003300084A395A1892F832B85A381E00895CF9372
:10034000DF93C1E3D1E0899199910E94930181E00B
:10035000CF33D807C1F783E090E40E94930180E097
:1003600090E80E94930183E090E10E94930183E072
:1003700090E80E94930183E090E2DF91CF910C948A
:100380009301CF92DF92EF92FF920F931F93CF933F
:10039000DF93C82EF62E01E311E0E80189919991CF
:1003A0000E948B0121E0CF33D207C1F7EF2DF0E09F
:1003B000EE0FFF1FE95DFE4FE080F180F701FF27A0
:1003C00085A19F2D9095892385A3C0E0D0E0D12CF5
:1003D000C0934F01C6010C2E02C0959587950A94D3
:1003E000E2F7F80180FF09C080819181FC01FF27BD
:1003F00085A19095892385A304C0808191810E9465
:100400008B0121960E5F1F4FC730D10509F7C70139
:10041000DF91CF911F910F91FF90EF90DF90CF90E0
:100420000C948B01862B08950C9405030E9499026D
:1004300080E00E946702811112C081E00E94670281
:1004400081110DC082E00E946702811108C083E023
:100450000E946702811103C084E00C94670281E06E
:1004600008950C9487026230710519F170F46130BF
:10047000710559F5FC01FF2724A1392F3095922FE2
:10048000932394A385A183231DC06330710541F09C
:1004900064307105D1F4FC01FF2784A1892B0FC0C2
:1004A000FC01FF2784A1892B84A385A19095892332
:1004B00009C0FC01FF2784A1292F2095822384A352
:1004C00085A1892B85A381E0089580E00895E82F18
:1004D000F0E0EE0FFF1FE05BFE4F8081882321F0EC
:1004E000918181E0892702C080E090E081700895C9
:1004F000E82FF0E0EE0FFF1FE05BFE4F80818111DF
:1005000002C0818102C080E090E081700895E82FF0
:10051000F0E0EE0FFF1FE05BFE4F80810895E82FB3
:10052000F0E0EE0FFF1FE05BFE4F908181E0892736
:1005300008957F928F929F92AF92BF92CF92DF9257
:10054000EF92FF920F931F93CF93DF93C0E5D1E01B
:100550005FE3C52E51E0D52E66E0762E8881898333
:10056000F601019111916F015801BB24F50124A1FD
:10057000E12EFF2485A190E08E219F2130E02E21E5
:100580003F21232B31F0892B51F433E0832E912C22
:100590000DC0892B41F488248394912C07C094E0EA
:1005A000892E912C03C082E0882E912C64E070E0AB
:1005B000C8010E94330262E070E0C8010E94330269
:1005C000872D8A95F1F7F50183A190E0E822F922C1
:1005D00081E0EF2809F080E08883B401C8010E941F
:1005E00033022296F1E0CA35DF0709F0B7CFDF9179
:1005F000CF911F910F91FF90EF90DF90CF90BF9020
:10060000AF909F908F907F900895089510928000F2
:1006100084E08093810010928500109284000895F8
:1006200080918400909185000895AC0180918400B0
:10063000909185009C01241B350B283E3340B0F778
:1006400008952091840030918500820F931F0C94AF
:100650001503CF93DF93EC010E9406039E0140E057
:1006600050E062E17AE780E090E00E94000430937D
:100670005D0120935C01DF91CF91089580915A0133
:1006800090915B010E94150320915A0130915B010A
:1006900080915C0190915D01820F931F90935B01AB
:1006A00080935A010895EF92FF920F931F93CF9377
:1006B000DF930E94BA000E94DB000E94D4000E94D7
:1006C0009F010E9414028FEF0E946F00E82E0BE141
:1006D000D0E0F12C10E0C0E08D2F90E0FC01E05064
:1006E000FF4FDC01A65BBE4F60818C910E9412021D
:1006F0006D2F0E94C1011C1718F40E94D70002C080
:100700000E94D9000E941602882389F08E2D0E9433
:100710003102882359F0CF5F0E948601C03108F072
:10072000C0E08E2D0E946F00E82E01C0C0E00E9444
:10073000CA00892B41F0F11006C0802F0E94590099
:10074000082FFF24F3940E94CA00892B09F4F12C8E
:100750001F5F1F3008F010E0DF5FD53008F0D0E0F9
:100760000111BACF80E090E0DF91CF911F910F91FE
:10077000FF90EF9008950024552704C0080E591FDC
:10078000880F991F009729F076956795B8F3710542
:10079000B9F7802D952F0895991B79E004C0991F12
:1007A000961708F0961B881F7A95C9F780950895CB
:1007B000AA1BBB1B51E107C0AA1FBB1FA617B70787
:1007C00010F0A61BB70B881F991F5A95A9F78095A3
:1007D0009095BC01CD01089597FB072E16F4009467
:1007E00007D077FD09D00E94D80307FC05D03EF45E
:1007F000909581959F4F0895709561957F4F0895CD
:10080000052E97FB1EF400940E94170457FD07D095
:100810000E941F0407FC03D04EF40C94170450955B
:100820004095309521953F4F4F4F5F4F08959095DC
:100830008095709561957F4F8F4F9F4F0895A1E2EE
:100840001A2EAA1BBB1BFD010DC0AA1FBB1FEE1F4A
:10085000FF1FA217B307E407F50720F0A21BB30B95
:10086000E40BF50B661F771F881F991F1A9469F711
:1008700060957095809590959B01AC01BD01CF016D
:1008800008958F929F92AF92BF92CF92DF92EF9294
:10089000FF92CF93DF93EC01688179818A819B81FC
:1008A000611571058105910521F464E279ED8BE50F
:1008B00097E02DE133EF41E050E00E940004490150
:1008C0005A0127EA31E440E050E00E949F046B01A6
:1008D0007C012CEE34EF4FEF5FEFC501B4010E94B5
:1008E0009F04DC01CB018C0D9D1DAE1DBF1DB7FF0C
:1008F00003C00197A109B04888839983AA83BB8369
:100900009F77DF91CF91FF90EF90DF90CF90BF90D6
:10091000AF909F908F9008950E944104089585E0C4
:1009200091E00E9441040895A0E0B0E080930501A9
:1009300090930601A0930701B09308010895EE2754
:10094000FF27AA27BB2708C0A20FB31FE41FF51F6C
:10095000220F331F441F551F9695879577956795EE
:1009600098F37040A9F7009799F7BD01CF0108955A
:04097000F894FFCF29
:1009740001010101010100000010087C08101010A1
:1009840054381010207C2010103854101010107C93
:10099400101030220A223003400080031003800329
:1009A40020004000200010000800040002000103A1
:0A09B40080034003200080031000C0
:00000001FF
