:100000000C943A000C9457000C9457000C94570031
:100010000C9457000C9457000C9457000C94570004
:100020000C9457000C9457000C9457000C945700F4
:100030000C9457000C9457000C9457000C945700E4
:100040000C9457000C9457000C9457000C945700D4
:100050000C9457000C9457000C9457000C945700C4
:100060000C9457000C9457000C9457000C945700B4
:100070000C94570011241FBECFEFD4E0DEBFCDBFDC
:1000800011E0A0E0B1E0ECEAFAE002C005900D92C8
:10009000AC36B107D9F721E0ACE6B1E001C01D9262
:1000A000A038B207E1F70E94EF030C9454050C94BA
:1000B0000000282F65E00E946804913069F4822FC7
:1000C00090E0019765E070E00E948804FB01E05039
:1000D000FF4F8081815080838FEF820F0895EF92D0
:1000E000FF921F93CF93DF93CDB7DEB769970FB61B
:1000F000F894DEBF0FBECDBF182F89E1E9E0F1E033
:10010000DE01119601900D928A95E1F70E942B0570
:1001100065E070E00E948804282F85E0E82EF12C2D
:10012000211307C00E942B05B7010E948804282FC5
:10013000F7CF822F90E065E070E00E945704E1E085
:10014000F0E0EC0FFD1FE80FF91FACE6B1E0819184
:100150008D9381E0A137B807D1F7822F69960FB64A
:10016000F894DEBF0FBECDBFDF91CF911F91FF90FE
:10017000EF900895E1E6F0E080E880831082A89592
:1001800084B7877F84BFE0E6F0E080818861808368
:100190001082089589B1082E000C990B892F881FB1
:1001A0008827881F90E0089557985F980895429A8D
:1001B0000895429808953A9A42980895EF92FF92CE
:1001C0000F931F93CF938EEE92E00E94C503C0E081
:1001D00000E010E082E3E82EF12CC801B7010E9494
:1001E00074046C2F4997A8F48FEF0E945D02CF5FD3
:1001F000C53008F0C0E00E94DA030F5F1F4F0C3DCE
:1002000085E0180751F7CF911F910F91FF90EF9064
:10021000089580E0EACFFF920F931F93CF93DF936F
:10022000CDB7DEB7A3970FB6F894DEBF0FBECDBF34
:100230008EEE92E00E94C50383E2E2E2F1E0DE018D
:10024000119601900D928A95E1F7F12C00E010E0F3
:100250000333110508F460C00436110590F005362B
:10026000110508F459C00639110520F46F2DE1E09D
:10027000F0E04BC00739110508F44EC0083C1105E9
:1002800018F46F2D8FEF46C0093C110508F444C0E7
:100290000A3F110520F46F2DE6E0F0E036C00B3F79
:1002A0001105D0F10C3281E0180720F46F2DEBE03E
:1002B000F0E02BC00D3281E0180770F10E3581E0BF
:1002C000180720F46F2DE0E1F0E01FC00F3581E04A
:1002D000180710F1003981E0180720F46F2DE5E1CF
:1002E000F0E013C0013981E01807B0F0023C81E072
:1002F000180720F46F2DEAE1F0E007C0033C81E02D
:10030000180750F06F2DEFE1F0E0EC0FFD1FEF0D3F
:10031000F11D80810E945D02F39484E08F1508F442
:10032000F12C0E94DA030F5F1F4F0C3D85E0180788
:1003300009F08ECFA3960FB6F894DEBF0FBECDBFE7
:10034000DF91CF911F910F91FF9008950895CF9263
:10035000DF92FF920F931F93CF93DF9300D000D0D3
:100360001F92CDB7DEB78EEE92E00E94C50385E006
:10037000E5E4F1E0DE01119601900D928A95E1F736
:10038000F12C00E010E08FE7C82ED12C073781E078
:10039000180718F46F2D8FEF2BC000FD09C06F2DCB
:1003A000E1E0F0E0EC0FFD1FEF0DF11D808120C0BA
:1003B0000E942B05B6010E948804073791E01907B7
:1003C00021F00E3E92E0190790F098012770332734
:1003D0002130310531F498012F5E3240263731400B
:1003E00030F098012F7133272130310519F46F2D2A
:1003F0000E945D02F39484E08F1508F4F12C0E94B2
:10040000DA030F5F1F4F0C3D95E0190709F0BECFCF
:100410000F900F900F900F900F90DF91CF911F9141
:100420000F91FF90DF90CF900895813031F08330AD
:1004300031F0811106C00C94DE000C940B010C9479
:10044000A70108950E94A70181E0089508959C01E5
:10045000FC01FF2795A1892F832B85A308959C017B
:10046000FC01FF2784A1832B84A395A1892F832BD3
:1004700085A381E00895CF93DF93C4E5D1E089910E
:1004800099910E942F0281E0C236D807C1F783E01C
:1004900090E40E942F0280E090E80E942F0283E007
:1004A00090E10E942F0283E090E80E942F0283E0F7
:1004B00090E2DF91CF910C942F02CF92DF92EF92D6
:1004C000FF920F931F93CF93DF93C82EF62E04E570
:1004D00011E0E801899199910E94270221E0C2363A
:1004E000D207C1F7EF2DF0E0EE0FFF1FE65BFE4FE6
:1004F000E080F180F701FF2785A19F2D909589234A
:1005000085A3C0E0D0E0D12CC0937101C6010C2EB0
:1005100002C0959587950A94E2F7F80180FF09C01B
:1005200080819181FC01FF2785A19095892385A376
:1005300004C0808191810E94270221960E5F1F4F87
:10054000C730D10509F7C701DF91CF911F910F91F6
:10055000FF90EF90DF90CF900C942702862B0895A8
:100560000C94A1030E94350380E00E9403038111D3
:1005700012C081E00E94030381110DC082E00E943D
:100580000303811108C083E00E940303811103C0AB
:1005900084E00C94030381E008950C9423036230FB
:1005A000710519F170F46130710559F5FC01FF27EF
:1005B00024A1392F3095922F932394A385A18323CF
:1005C0001DC06330710541F064307105D1F4FC0148
:1005D000FF2784A1892B0FC0FC01FF2784A1892B51
:1005E00084A385A19095892309C0FC01FF2784A1DC
:1005F000292F2095822384A385A1892B85A381E0BF
:10060000089580E00895E82FF0E0EE0FFF1FEE5808
:10061000FE4F8081882321F0918181E0892702C0EB
:1006200080E090E081700895E82FF0E0EE0FFF1F6A
:10063000EE58FE4F8081811102C0818102C080E0AE
:1006400090E081700895E82FF0E0EE0FFF1FEE5864
:10065000FE4F80810895E82FF0E0EE0FFF1FEE5867
:10066000FE4F908181E0892708957F928F929F921B
:10067000AF92BF92CF92DF92EF92FF920F931F93B0
:10068000CF93DF93C2E7D1E052E6C52E51E0D52EDD
:1006900066E0762E88818983F601019111916F01C0
:1006A0005801BB24F50124A1E12EFF2485A190E08F
:1006B0008E219F2130E02E213F21232B31F0892BE9
:1006C00051F433E0832E912C0DC0892B41F4882402
:1006D0008394912C07C094E0892E912C03C082E072
:1006E000882E912C64E070E0C8010E94CF0262E085
:1006F00070E0C8010E94CF02872D8A95F1F7F501BD
:1007000083A190E0E822F92281E0EF2809F080E05F
:100710008883B401C8010E94CF022296F1E0CC3751
:10072000DF0709F0B7CFDF91CF911F910F91FF90B5
:10073000EF90DF90CF90BF90AF909F908F907F9081
:10074000089508951092800084E0809381001092B3
:100750008500109284000895809184009091850016
:100760000895AC0180918400909185009C01241B28
:10077000350B283E3340B0F7089520918400309126
:100780008500820F931F0C94B103CF93DF93EC018C
:100790000E94A2039E0140E050E062E17AE780E01F
:1007A00090E00E949C0430937F0120937E01DF91B2
:1007B000CF91089580917C0190917D010E94B103B9
:1007C00020917C0130917D0180917E0190917F018B
:1007D000820F931F90937D0180937C010895EF9287
:1007E000FF920F931F93CF93DF930E94BA000E9452
:1007F000DB000E94D4000E943B020E94B0028FEFF7
:100800000E946F00E82E0BE1D0E0F12C10E0C0E078
:100810008D2F90E0FC01E050FF4FDC01A459BE4F4A
:1008200060818C910E94AE026D2F0E945D021C17A8
:1008300018F40E94D70002C00E94D9000E94B202A0
:10084000882389F08E2D0E94CD02882359F0CF5F36
:100850000E942202C03108F0C0E08E2D0E946F007D
:10086000E82E01C0C0E00E94CA00892B41F0F110BF
:1008700006C0802F0E945900082FFF24F3940E9485
:10088000CA00892B09F4F12C1F5F1F3008F010E01B
:10089000DF5FD53008F0D0E00111BACF80E090E002
:1008A000DF91CF911F910F91FF90EF900895002459
:1008B000552704C0080E591F880F991F009729F06B
:1008C00076956795B8F37105B9F7802D952F089542
:1008D000991B79E004C0991F961708F0961B881F92
:1008E0007A95C9F780950895AA1BBB1B51E107C0F3
:1008F000AA1FBB1FA617B70710F0A61BB70B881FB0
:10090000991F5A95A9F780959095BC01CD0108953E
:1009100097FB072E16F4009407D077FD09D00E94AC
:10092000740407FC05D03EF4909581959F4F08957F
:10093000709561957F4F0895052E97FB1EF40094E6
:100940000E94B30457FD07D00E94BB0407FC03D0EC
:100950004EF40C94B30450954095309521953F4F3B
:100960004F4F5F4F089590958095709561957F4F9B
:100970008F4F9F4F0895A1E21A2EAA1BBB1BFD01AA
:100980000DC0AA1FBB1FEE1FFF1FA217B307E4076E
:10099000F50720F0A21BB30BE40BF50B661F771FC6
:1009A000881F991F1A9469F76095709580959095A6
:1009B0009B01AC01BD01CF0108958F929F92AF9230
:1009C000BF92CF92DF92EF92FF92CF93DF93EC0131
:1009D000688179818A819B81611571058105910505
:1009E00021F464E279ED8BE597E02DE133EF41E00E
:1009F00050E00E949C0449015A0127EA31E440E09A
:100A000050E00E943B056B017C012CEE34EF4FEF70
:100A10005FEFC501B4010E943B05DC01CB018C0DE9
:100A20009D1DAE1DBF1DB7FF03C00197A109B048B2
:100A300088839983AA83BB839F77DF91CF91FF90AF
:100A4000EF90DF90CF90BF90AF909F908F900895E0
:100A50000E94DD04089585E091E00E94DD04089580
:100A6000A0E0B0E08093050190930601A0930701F8
:100A7000B09308010895EE27FF27AA27BB2708C0D7
:100A8000A20FB31FE41FF51F220F331F441F551F72
:100A9000969587957795679598F37040A9F7009795
:0C0AA00099F7BD01CF010895F894FFCF35
:100AAC0001010101010100000010087C0810101068
:100ABC0054381010207C2010103854101010107C5A
:100ACC0010106030180C064F6773797CFFFFFFFF26
:100ADC007CFFFFFF787CFFFF70787CFF6070787C78
:100AEC00406070787C30220A223003400080031072
:100AFC0003800320004000200010000800040002C6
:0C0B0C0000010380034003200080031060
:00000001FF
