:100000000C943A000C9457000C9457000C94570031
:100010000C9457000C9457000C9457000C94570004
:100020000C9457000C9457000C9457000C945700F4
:100030000C9457000C9457000C9457000C945700E4
:100040000C9457000C9457000C9457000C945700D4
:100050000C9457000C9457000C9457000C945700C4
:100060000C9457000C9457000C9457000C945700B4
:100070000C94570011241FBECFEFD4E0DEBFCDBFDC
:1000800011E0A0E0B1E0ECE7F7E002C005900D92CE
:10009000A434B107D9F721E0A4E4B1E001C01D9276
:1000A000A435B207E1F70E9459020C94BC030C94EA
:1000B0000000282F65E00E94D002913069F4822F61
:1000C00090E0019765E070E00E94DC02FB01E050E7
:1000D000FF4F8081815080838FEF820F0895EF92D0
:1000E000FF921F93CF93DF93CDB7DEB769970FB61B
:1000F000F894DEBF0FBECDBF182F89E1E9E0F1E033
:10010000DE01119601900D928A95E1F70E9452034B
:1001100065E070E00E94DC02282F85E0E82EF12CDB
:10012000211307C00E945203B7010E94DC02282F4E
:10013000F7CF822F90E065E070E00E94BF02E1E01F
:10014000F0E0EC0FFD1FE80FF91FA4E4B1E081918E
:100150008D9381E0A934B807D1F7822F69960FB645
:10016000F894DEBF0FBECDBFDF91CF911F91FF90FE
:10017000EF900895E1E6F0E080E880831082A89592
:1001800084B7877F84BFE0E6F0E080818861808368
:100190001082089589B1082E000C990B892F881FB1
:1001A0008827881F90E0089557985F980895429A8D
:1001B0000895429808953A9A429808959C01FC0146
:1001C000FF2795A1892F832B85A308959C01FC010E
:1001D000FF2784A1832B84A395A1892F832B85A33B
:1001E00081E00895CF93DF93CCE2D1E0899199919A
:1001F0000E94E60081E0CA33D807C1F783E090E4AB
:100200000E94E60080E090E80E94E60083E090E132
:100210000E94E60083E090E80E94E60083E090E21E
:10022000DF91CF910C94E600CF92DF92EF92FF9294
:100230000F931F93CF93DF93C82EF62E0CE211E09D
:10024000E801899199910E94DE0021E0CA33D2072A
:10025000C1F7EF2DF0E0EE0FFF1FEE5DFE4FE080E7
:10026000F180F701FF2785A19F2D9095892385A314
:10027000C0E0D0E0D12CC0934901C6010C2E02C0D1
:10028000959587950A94E2F7F80180FF09C080816F
:100290009181FC01FF2785A19095892385A304C046
:1002A000808191810E94DE0021960E5F1F4FC83031
:1002B000D10509F7C701DF91CF911F910F91FF90F1
:1002C000EF90DF90CF900C94DE00862B08950C9475
:1002D00058020E94EC0180E00E94BA01811112C014
:1002E00081E00E94BA0181110DC082E00E94BA0132
:1002F000811108C083E00E94BA01811103C084E02B
:100300000C94BA0181E008950C94DA016230710511
:1003100019F170F46130710559F5FC01FF2724A132
:10032000392F3095922F932394A385A183231DC049
:100330006330710541F064307105D1F4FC01FF2791
:1003400084A1892B0FC0FC01FF2784A1892B84A3E2
:1003500085A19095892309C0FC01FF2784A1292F3D
:100360002095822384A385A1892B85A381E008950C
:1003700080E00895E82FF0E0EE0FFF1FE65BFE4FF0
:100380008081882321F0918181E0892702C080E06B
:1003900090E081700895E82FF0E0EE0FFF1FE65B1C
:1003A000FE4F8081811102C0818102C080E090E017
:1003B00081700895E82FF0E0EE0FFF1FE65BFE4F1F
:1003C00080810895E82FF0E0EE0FFF1FE65BFE4FFF
:1003D000908181E0892708957F928F929F92AF92BA
:1003E000BF92CF92DF92EF92FF920F931F93CF9322
:1003F000DF93CAE4D1E05AE3C52E51E0D52E66E082
:10040000762E88818983F601019111916F0158013F
:10041000BB24F50124A1E12EFF2485A190E08E21CB
:100420009F2130E02E213F21232B31F0892B51F4E5
:1004300033E0832E912C0DC0892B41F488248394C2
:10044000912C07C094E0892E912C03C082E0882E65
:10045000912C64E070E0C8010E94860162E070E0C7
:10046000C8010E948601872D8A95F1F7F50183A1C5
:1004700090E0E822F92281E0EF2809F080E088830B
:10048000B401C8010E9486012296F1E0C435DF075D
:1004900009F0B7CFDF91CF911F910F91FF90EF90AF
:1004A000DF90CF90BF90AF909F908F907F900895F6
:1004B0000895EF92FF920F931F93CF93DF930E94C3
:1004C000BA000E94DB000E94D4000E94F2000E9449
:1004D00067018FEF0E946F00E82E0BE1D0E0F12C56
:1004E00010E0C0E08D2F90E0FC01E050FF4FDC01F8
:1004F000AC5BBE4F60818C910E9465016D2F0E94A4
:1005000014011C1718F40E94D70002C00E94D900E1
:100510000E946901882379F08E2D0E94840188232E
:1005200049F0CF5FC03108F0C0E08E2D0E946F000F
:10053000E82E01C0C0E00E94CA00892B41F0F110F2
:1005400006C0802F0E945900082FFF24F3940E94B8
:10055000CA00892B09F4F12C1F5F1F3008F010E04E
:10056000DF5FD53008F0D0E00111BCCF80E090E033
:10057000DF91CF911F910F91FF90EF90089500248C
:10058000552704C0080E591F880F991F009729F09E
:1005900076956795B8F37105B9F7802D952F089575
:1005A000991B79E004C0991F961708F0961B881FC5
:1005B0007A95C9F78095089597FB072E16F4009455
:1005C00007D077FD09D00E94F00207FC05D03EF469
:1005D000909581959F4F0895709561957F4F0895EF
:1005E000AA1BBB1B51E107C0AA1FBB1FA617B70759
:1005F00010F0A61BB70B881F991F5A95A9F7809575
:100600009095BC01CD0108958F929F92AF92BF92B9
:10061000CF92DF92EF92FF92CF93DF93EC0168814C
:1006200079818A819B81611571058105910521F48C
:1006300064E279ED8BE597E02DE133EF41E050E0A6
:100640000E947B0349015A0127EA31E440E050E06F
:100650000E9462036B017C012CEE34EF4FEF5FEFE1
:10066000C501B4010E946203DC01CB018C0D9D1D0C
:10067000AE1DBF1DB7FF03C00197A109B048888315
:100680009983AA83BB839F77DF91CF91FF90EF90EF
:10069000DF90CF90BF90AF909F908F9008950E9471
:1006A0000403089585E091E00E9404030895A0E00A
:1006B000B0E08093050190930601A0930701B093E9
:1006C00008010895EE27FF27AA27BB2708C0A20F1D
:1006D000B31FE41FF51F220F331F441F551F9695AC
:1006E00087957795679598F37040A9F7009799F7E4
:1006F000BD01CF010895052E97FB1EF400940E94C2
:10070000920357FD07D00E949A0307FC03D04EF4D2
:100710000C94920350954095309521953F4F4F4F43
:100720005F4F089590958095709561957F4F8F4F9D
:100730009F4F0895A1E21A2EAA1BBB1BFD010DC0FD
:10074000AA1FBB1FEE1FFF1FA217B307E407F50781
:1007500020F0A21BB30BE40BF50B661F771F881F5D
:10076000991F1A9469F760957095809590959B01F3
:0C077000AC01BD01CF010895F894FFCF4B
:10077C0001010101010100000010087C081010109B
:10078C0054381010207C2010103854101010107C8D
:10079C001010034000800310038003200040002051
:1007AC000010000800040002000103800340032035
:0407BC0000800310A6
:00000001FF
