:100000000C943A000C9457000C9457000C94570031
:100010000C9457000C9457000C9457000C94570004
:100020000C9457000C9457000C9457000C945700F4
:100030000C9457000C9457000C9457000C945700E4
:100040000C9457000C9457000C9457000C945700D4
:100050000C9457000C9457000C9457000C945700C4
:100060000C9457000C9457000C9457000C945700B4
:100070000C94570011241FBECFEFD4E0DEBFCDBFDC
:1000800011E0A0E0B1E0EEE5F5E002C005900D92D0
:10009000AA33B107D9F721E0AAE3B1E001C01D926C
:1000A000A034B207E1F70E945F010C94AD020C94FA
:1000B0000000282F65E00E94C101913069F4822F71
:1000C00090E0019765E070E00E94CD01FB01E050F7
:1000D000FF4F8081815080838FEF820F08950F93AF
:1000E0001F93CF93DF93CDB7DEB769970FB6F89420
:1000F000DEBF0FBECDBF89E1E9E0F1E0DE01119680
:1001000001900D928A95E1F70E94430265E070E04C
:100110000E94CD010AE311E020E030E0DC01BB27C2
:10012000CD0165E070E00E94B00141E050E04C0F6D
:100130005D1F840F951FFC01E20FF31F8081F80102
:1001400081938F012F5F3F4F2530310549F7699625
:100150000FB6F894DEBF0FBECDBFDF91CF911F91D8
:100160000F910895E1E6F0E080E880831082A89581
:1001700084B7877F84BFE0E6F0E080818861808378
:100180001082089589B1082E000C990B892F881FC1
:100190008827881F90E0089557985F980895429A9D
:1001A0000895429808953A9A429808959C01FC0156
:1001B000FF2795A1892F832B85A308959C01FC011E
:1001C000FF2784A1832B84A395A1892F832B85A34B
:1001D00081E00895CF93DF93CCE2D1E089919991AA
:1001E0000E94DE0081E0CA33D807C1F783E090E4C3
:1001F0000E94DE0080E090E80E94DE0083E090E153
:100200000E94DE0083E090E80E94DE0083E090E23E
:10021000DF91CF910C94DE00CF92DF92EF92FF92AC
:100220000F931F93CF93DF93C82EF62E0CE211E0AD
:10023000E801899199910E94D60021E0CA33D20742
:10024000C1F7EF2DF0E0EE0FFF1FEE5DFE4FE080F7
:10025000F180F701FF2785A19F2D9095892385A324
:10026000C0E0D0E0D12CC0933F01C6010C2E02C0EB
:10027000959587950A94E2F7F80180FF09C080817F
:100280009181FC01FF2785A19095892385A304C056
:10029000808191810E94D60021960E5F1F4FC83049
:1002A000D10509F7C701DF91CF911F910F91FF9001
:1002B000EF90DF90CF900C94D600862B0895FF929C
:1002C0000F931F93CF93DF930E94B2000E94D3003D
:1002D0000E94CC000E94EA008BE1F82EC0E000E012
:1002E00010E0D0E08C2F90E0FC01E050FF4FDC01EB
:1002F000A65CBE4F60818C910E945D016C2F0E94B4
:100300000C011D1718F40E94CF0002C00E94D100FA
:100310000E94C200892B69F001110BC00E946F007E
:100320008F2D0E945900F82EDF5F01E0D03108F0D8
:10033000D0E00E94C200892B09F400E01F5F1F304B
:1003400008F010E0CF5FC53008F0C0E0F110CACF70
:1003500080E090E0DF91CF911F910F91FF90089581
:100360000024552704C0080E591F880F991F0097B5
:1003700029F076956795B8F37105B9F7802D952F1B
:100380000895991B79E004C0991F961708F0961BF1
:10039000881F7A95C9F78095089597FB072E16F464
:1003A000009407D077FD09D00E94E10107FC05D039
:1003B0003EF4909581959F4F0895709561957F4F7C
:1003C0000895AA1BBB1B51E107C0AA1FBB1FA6179C
:1003D000B70710F0A61BB70B881F991F5A95A9F7EE
:1003E00080959095BC01CD0108958F929F92AF9218
:1003F000BF92CF92DF92EF92FF92CF93DF93EC0107
:10040000688179818A819B816115710581059105DA
:1004100021F464E279ED8BE597E02DE133EF41E0E3
:1004200050E00E946C0249015A0127EA31E440E0A1
:1004300050E00E9453026B017C012CEE34EF4FEF31
:100440005FEFC501B4010E945302DC01CB018C0DAA
:100450009D1DAE1DBF1DB7FF03C00197A109B04888
:1004600088839983AA83BB839F77DF91CF91FF9085
:10047000EF90DF90CF90BF90AF909F908F900895B6
:100480000E94F501089585E091E00E94F50108952C
:10049000A0E0B0E08093050190930601A0930701CE
:1004A000B09308010895EE27FF27AA27BB2708C0AD
:1004B000A20FB31FE41FF51F220F331F441F551F48
:1004C000969587957795679598F37040A9F700976B
:1004D00099F7BD01CF010895052E97FB1EF40094F6
:1004E0000E94830257FD07D00E948B0207FC03D0B5
:1004F0004EF40C94830250954095309521953F4FD2
:100500004F4F5F4F089590958095709561957F4FFF
:100510008F4F9F4F0895A1E21A2EAA1BBB1BFD010E
:100520000DC0AA1FBB1FEE1FFF1FA217B307E407D2
:10053000F50720F0A21BB30BE40BF50B661F771F2A
:10054000881F991F1A9469F760957095809590950A
:0E0550009B01AC01BD01CF010895F894FFCFCF
:10055E0001010101010100000010087C08101020AB
:10056E007C20101038541010101054381010107CBD
:10057E001010034000800310038003200040002071
:0A058E000010000800040002000144
:00000001FF
