:100000000C943A000C9457000C9457000C94570031
:100010000C9457000C9457000C9457000C94570004
:100020000C9457000C9457000C9457000C945700F4
:100030000C9457000C9457000C9457000C945700E4
:100040000C9457000C9457000C9457000C945700D4
:100050000C9457000C9457000C9457000C945700C4
:100060000C9457000C9457000C9457000C945700B4
:100070000C94570011241FBECFEFD4E0DEBFCDBFDC
:1000800011E0A0E0B1E0EAEAF2E002C005900D92D2
:10009000AE31B107D9F721E0AEE1B1E001C01D9268
:1000A000AF31B207E1F70E9419010C9453010C948F
:1000B0000000E82FF0E0E150FF4F908191509083D5
:1000C00081500895E1E6F0E080E880831082A895F1
:1000D00084B7877F84BFE0E6F0E080818861808319
:1000E0001082089589B1082E000C990B892F881F62
:1000F0008827881F90E0089557985F980895429A3E
:100100000895429808953A9A429808959C01FC01F6
:10011000FF2795A1892F832B85A308959C01FC01BE
:10012000FF2784A1832B84A395A1892F832B85A3EB
:1001300081E00895CF93DF93CFE0D1E08991999149
:100140000E948E0081E0CD31D807C1F783E090E4B2
:100150000E948E0080E090E80E948E0083E090E193
:100160000E948E0083E090E80E948E0083E090E27F
:10017000DF91CF910C948E00CF92DF92EF92FF929D
:100180000F931F93CF93DF93F82EC62FD0E0CC0FA1
:10019000DD1FCB5FDE4F888199810E948600E09150
:1001A0001E01F0E0EE0FFF1FE15FFE4F80819181A5
:1001B0000E9486002FE0C22E21E0D22E00E010E047
:1001C000EF2CF12C00931E01C701002E02C0959563
:1001D00087950A94E2F780FF12C088819981FC011B
:1001E000FF2785A19095892385A3F60180819181C0
:1001F000FC01FF2785A19095892385A309C0F601FD
:10020000808191810E948600888199810E94860068
:100210000F5F1F4FF2E0CF0ED11C0830110591F691
:10022000DF91CF911F910F91FF90EF90DF90CF90D2
:1002300008950E9462000E9483000E947C000E9438
:100240009A0085E0F82EC0E000E010E0D0E0EC2F4E
:10025000F0E0E050FF4F6C2F80810E94BC001D1722
:1002600018F40E947F0002C00E9481000E94720068
:10027000892B59F0011109C08F2D0E945900F82EC9
:10028000DF5F01E0D03108F0D0E00E947200892BDE
:1002900009F400E01F5F1F3008F010E0CF5FC530A9
:0A02A000B0F2C0E0D4CFF894FFCF15
:1002AA0001010101010340008003100380032000C3
:0E02BA004000200010000800040002000100B7
:00000001FF
