:100000000C943A000C9444000C9444000C9444006A
:100010000C9444000C9444000C9444000C94440050
:100020000C9444000C9444000C9444000C94440040
:100030000C9444000C9444000C9444000C94440030
:100040000C9444000C9444000C9444000C94440020
:100050000C9444000C9444000C9444000C94440010
:100060000C9444000C9444000C9444000C94440000
:100070000C94440011241FBECFEFD4E0DEBFCDBFEF
:100080000E946A000C948F000C940000E1E6F0E0FE
:1000900080E880831082A89584B7877F84BFE0E6DC
:1000A000F0E08081886180831082089589B1082EF4
:1000B000000C990B892F881F8827881F90E00895CE
:1000C00057985F980895429A0895429808953A9AE9
:1000D000429808950E9446000E9467000E946000B6
:1000E00010E0C0E0D0E0CD1718F40E94630002C019
:1000F0000E9465000E945600892B39F0111105C03D
:10010000DF5F11E0D63008F0D0E00E945600892B66
:1001100009F410E0CF5FC53030F3C0E0E4CFF894CD
:02012000FFCF0F
:00000001FF
