:100000000C943A000C9457000C9457000C94570031
:100010000C9457000C9457000C9457000C94570004
:100020000C9457000C9457000C9457000C945700F4
:100030000C9457000C9457000C9457000C945700E4
:100040000C9457000C9457000C9457000C945700D4
:100050000C9457000C9457000C9457000C945700C4
:100060000C9457000C9457000C9457000C945700B4
:100070000C94570011241FBECFEFD4E0DEBFCDBFDC
:1000800011E0A0E0B1E0ECE8F2E002C005900D92D2
:10009000AE31B107D9F721E0AEE1B1E001C01D9268
:1000A000AF31B207E1F70E9410010C9444010C94A7
:1000B0000000E1E6F0E080E880831082A89584B734
:1000C000877F84BFE0E6F0E08081886180831082D2
:1000D000089589B1082E000C990B892F881F882755
:1000E000881F90E0089557985F980895429A089560
:1000F000429808953A9A429808959C01FC01FF277E
:1001000095A1892F832B85A308959C01FC01FF27CE
:1001100084A1832B84A395A1892F832B85A381E0C0
:100120000895CF93DF93CFE0D1E0899199910E9418
:10013000850081E0CD31D807C1F783E090E40E94CB
:10014000850080E090E80E94850083E090E10E94B5
:10015000850083E090E80E94850083E090E2DF91D3
:10016000CF910C948500CF92DF92EF92FF920F9384
:100170001F93CF93DF93F82EC62FD0E0CC0FDD1F57
:10018000CB5FDE4F888199810E947D00E0911E0146
:10019000F0E0EE0FFF1FE15FFE4F808191810E9432
:1001A0007D002FE0C22E21E0D22E00E010E0EF2CE7
:1001B000F12C00931E01C701002E02C09595879572
:1001C0000A94E2F780FF12C088819981FC01FF2721
:1001D00085A19095892385A3F60180819181FC01F9
:1001E000FF2785A19095892385A309C0F601808109
:1001F00091810E947D00888199810E947D000F5F1E
:100200001F4FF2E0CF0ED11C0830110591F6DF919F
:10021000CF911F910F91FF90EF90DF90CF900895B5
:100220000E9459000E947A000E9473000E9491006F
:10023000C0E000E010E0D0E0EC2FF0E0E050FF4F35
:100240006C2F80810E94B3001D1718F40E94760065
:1002500002C00E9478000E946900892B39F00111C8
:1002600005C0DF5F01E0D03108F0D0E00E946900F6
:10027000892B09F400E01F5F1F3008F010E0CF5F0A
:0C028000C530D0F2C0E0D8CFF894FFCF1A
:10028C0030464046300340008003100380032000BA
:0E029C004000200010000800040002000100D5
:00000001FF
